:100000000A128A11EF2F00308A000408840A82073E
:100010000034013400340A34003464340034E834E9
:1000200003341034273441344E34313420343D34D9
:100030002034253475340D340A34003469346E3478
:0A0040006934633469346F3400340E
:10008C000734831603138901080003308316031306
:10009C0089000800F10071080A128A1158200A120E
:1000AC008A110800F00083160313981C5E285F2841
:1000BC00592870088312031399000800FF30831627
:1000CC0003138500FF308600FF308700FF30880067
:1000DC0083120313890108008316031318151930B2
:1000EC00990083120313981783160313981683121F
:1000FC000313181608008316031385018601870164
:10010C00880107309F008312031386018701880141
:10011C0089010800C030831603139F000930831235
:10012C0003139F001A30F100F830F000F00B9C28FC
:10013C00F10B9C2800000800F501AE2875080A1286
:10014C008A1160210A128A110130F4007408F50733
:10015C008312031343087502031CB528B628A42880
:10016C000800F4000130F2007208831203139F059B
:10017C007408F20002300310F20DFF3E031DC1287B
:10018C000310720DF30073089F040630F300303037
:10019C00F200F20BCF28F30BCF28000083120313CD
:1001AC001F151F19DA28DB28D7281E08F100831623
:1001BC0003131E08F0000800780879040319E728D7
:1001CC00E8281729FD01FD0AF62801300310F80D67
:1001DC00F90DFF3E031DEC280130FC007C08FD07E7
:1001EC00F91FF928FA28EB2879087B02031D00294E
:1001FC0078087A02031C032904290A297808FA02D0
:10020C007908031CFB03FB0201300310F90CF80CFA
:10021C00FF3E031D0B290130FD02031D1629172972
:10022C00FA287B08F9007A08F8000800F501F601B5
:10023C00700871040319232924295B29F701F70A93
:10024C00322901300310F00DF10DFF3E031D28295A
:10025C000130F4007408F707F11F352936292729D6
:10026C0001300310F50DF60DFF3E031D3729710803
:10027C007302031D432970087202031C4629472987
:10028C004E297008F2027108031CF303F302751473
:10029C0001300310F10CF00CFF3E031D4F2901300F
:1002AC00F702031D5A295B2936297608F1007508D7
:1002BC00F0000800F300AA290130F000730A682945
:1002CC000310F00DFF3E031D6629700885000230F7
:1002DC00F2008630F1009930F000F00B7329F10B2D
:1002EC007329F20B7329C5290130F000730A802998
:1002FC000310F00DFF3E031D7E29700886006D294A
:10030C000130F000730A8C290310F00DFF3E031D21
:10031C008A29700887006D290130F000730A98292A
:10032C000310F00DFF3E031D9629700888006D29FF
:10033C000130F000730AA4290310F00DFF3E031DD9
:10034C00A229700889006D29831203134008F0005C
:10035C00F1017108003A0319B429C5297008003A53
:10036C0003196229013A03197A29033A03198629D8
:10037C00013A03199229073A03199E29C529080045
:10038C000030831203132005A80000302105A900BA
:10039C0080302205AA007F302305AB002B082A04ED
:1003AC0029042804031DDB29DC29E4290030A300DF
:1003BC000030A2000030A1000030A0000030240565
:1003CC00A80000302505A90080302605AA007F3042
:1003DC002705AB002B082A0429042804031DF72940
:1003EC00F829002A0030A7000030A6000030A50034
:1003FC000030A400A31F032A042A282A0030A800D6
:10040C000030A9000030AA008030AB002008A80200
:10041C002108031C210F132A142AA9022208031CE9
:10042C00220F192A1A2AAA022308031C230F1F2A97
:10043C00202AAB022B08A3002A08A2002908A1003D
:10044C002808A000A71F2B2A2C2A502A0030A8000D
:10045C000030A9000030AA008030AB002408A802AC
:10046C002508031C250F3B2A3C2AA9022608031C3D
:10047C00260F412A422AAA022708031C270F472AC3
:10048C00482AAB022B08A7002A08A6002908A500B9
:10049C002808A4008030A3068030A7062708230272
:1004AC00031D622A26082202031D622A2508210246
:1004BC00031D622A240820020318652A662A682A6A
:1004CC000310692A03140800F800780803196F2A2E
:1004DC00702A842AF31F732A742A842A7009FA005A
:1004EC007109FB007209FC007309FD00FA0A03197B
:1004FC00FB0A0319FC0A0319FD0A8C2A7308FD0078
:10050C007208FC007108FB007008FA007308720492
:10051C0071047004031D932A942A9D2A0030F30061
:10052C000030F2000030F1000030F000232B963048
:10053C00F4007408F900AF2A0130F4007408F907CC
:10054C0001300310FD0CFC0CFB0CFA0CFF3E031DE0
:10055C00A72AFE307D05031DB42AB52AA22AD12A6A
:10056C000130F4007408F9070130FA070030031861
:10057C000130FB07003003180130FC070030031872
:10058C000130FD0701300310FD0CFC0CFB0CFA0CC8
:10059C00FF3E031DC92AFF307D05031DD62AD72A2D
:1005AC00B62AE32A0130F9020130F4000310FA0DE7
:1005BC00FB0DFC0DFD0DF40BDC2AFC1BE62AE72AD7
:1005CC00ED2A023079020318EC2AED2AD82A791880
:1005DC00F02AF12AF92AFF30FA05FF30FB057F30AB
:1005EC00FC05FF30FD050310F90C7908F400F5014A
:1005FC00F601F70118300310F40DF50DF60DF70D9B
:10060C00FF3E031D012B7408FA047508FB047608E1
:10061C00FC047708FD0478080319152B162B1B2BEB
:10062C00F31F192B1A2B1B2BFD177D08F3007C08CD
:10063C00F2007B08F1007A08F00008008312031323
:10064C00AA002030A2002208A600D22B25302B06AF
:10065C000319312B322B392B2B080A128A115020FB
:10066C000A128A11D22BA501402BC030A2002208FD
:10067C00A5045A2B0130AA07FF302A0784000A125E
:10068C008A1103200A128A11AB00A200A3012308CD
:10069C00003A0319522BD22B2208003A0319E62BED
:1006AC00753A03193B2BD22B2608840083130008C0
:1006BC00A700840A0008A8000230A2002208A6079E
:1006CC00AB01AB0A2B08A2002207013E84000A12E0
:1006DC008A1103200A128A11A3000A128A1103201C
:1006EC000A128A11A40024082802031D7F2B230858
:1006FC0027020318822B832B842B8E2B0130A20014
:10070C002208AB0705302B06031D8D2B8E2B682B77
:10071C002B08A2002208A900C72B0A30F8000030D1
:10072C00F9002908A2002207013E84000A128A114E
:10073C0003200A128A11F0000A128A1103200A12ED
:10074C008A11F1002808F3002708F2000A128A1116
:10075C001C210A128A117108FB007008FA000A1297
:10076C008A11E2200A128A117808303E8312031390
:10077C00A3002308AB002B080A128A1150200A127E
:10078C008A11FF3083120313A2002208A907290A39
:10079C00031DD12BD22B932B013083120313AA07E9
:1007AC00FF302A0784000A128A1103200A128A11C8
:1007BC00A2002208AB002B08031DE52BE62B2C2BEB
:1007CC0008000A128A1172200A128A110A128A115E
:1007DC0090200A128A1183160313860116300A120E
:1007EC008A1124230A128A11831203132F08F00092
:1007FC003008F100F201F30100300A128A116A226A
:10080C000A128A11730883120313A3007208A20040
:10081C007108A1007008A0004430A7009630A60013
:10082C000030A5000030A4000A128A11C6210A1259
:10083C008A11031C222C232C242C112D01300A127A
:10084C008A11B7200A128A11710883120313B2009D
:10085C007008B1003208A1003108A0000B300A1258
:10086C008A1124230A128A110030831203133202D4
:10087C007D30031931020318442C452C472C803051
:10088C008600003032027D3003193102031C4F2CDC
:10089C00502C5B2C00303202FA3003193102031851
:1008AC00582C592C5B2CC030860000303202FA30A8
:1008BC0003193102031C632C642C6F2C013032029F
:1008CC0077300319310203186C2C6D2C6F2CE0302F
:1008DC00860001303202773003193102031C772C69
:1008EC00782C832C01303202F430031931020318B6
:1008FC00802C812C832CF030860001303202F430B5
:10090C0003193102031C8B2C8C2C972C02303202D5
:10091C007130031931020318942C952C972CF83054
:10092C00860002303202713003193102031C9F2CF5
:10093C00A02CAB2C02303202EE300319310203181A
:10094C00A82CA92CAB2CFC30860002303202EE30E5
:10095C0003193102031CB32CB42CBF2C033032020C
:10096C006B30031931020318BC2CBD2CBF2CFE308C
:10097C008600033032026B3003193102031CC72C82
:10098C00C82CD32C04303202013003193102031865
:10099C00D02CD12CD32CFF308600023083120313C1
:1009AC00AE008630AD009830AC00AC0BDB2CAD0B40
:1009BC00DB2CAE0BDB2C0000013083120313AF07D2
:1009CC000318B00A0030B0072F08F0003008F1000F
:1009DC00F201F30100300A128A116A220A128A11FA
:1009EC00730883120313A3007208A2007108A100FC
:1009FC007008A0004430A7009630A6000030A50077
:100A0C000030A4000A128A11C6210A128A11031C92
:100A1C00102D112D242C08000A128A1181200A1283
:100A2C008A110A128A114B200A128A11831203139B
:100A3C000508B3003308C200C0012A2D3D03031D75
:100A4C00282D292D2A2D2E2D091C2D2D2E2D242D12
:100A5C00BD01BD0A772F3E08031D352D362D582DAF
:100A6C000A128A1181200A128A110A128A114B2049
:100A7C000A128A110A128A11A2200A128A118312EE
:100A8C000313891C4A2D4B2D4D2DC001902F091C91
:100A9C00502D512D452DC001C00A0930B30033082B
:100AAC00C300902F0A128A1164200A128A11831231
:100ABC000313BF01BF0AC101C10AA22D05083F05DE
:100ACC000319692D6A2D992D09150430831203130E
:100ADC00B5000C30B4003330B300B30B732DB40B32
:100AEC00732DB50B732D83120313091182308312EE
:100AFC000313B400DD30B300B30B822DB40B822D85
:100B0C00013083120313B300410A8E2D0310B30D71
:100B1C00FF3E031D8C2D3308B4003408BF00013098
:100B2C00B3003308C10707304106031D9E2D9F2DCE
:100B3C00642DC001C00A902F4308031DA62DA72DBC
:100B4C00642D902F3E08031DAC2DAD2DC22D0A1225
:100B5C008A11A2200A128A1183120313891CB72D41
:100B6C00B82DB92D9F2D091CBC2DBD2DB22D0230D9
:100B7C00B3003308C000902FC101C10A0930B30083
:100B8C003308C300BF01BF0AB6010F2E06083F058C
:100B9C000319D12DD22D012E091504308312031304
:100BAC00B5000C30B4003330B300B30BDB2DB40BF9
:100BBC00DB2DB50BDB2D831203130911823083124D
:100BCC000313B400DD30B300B30BEA2DB40BEA2DE4
:100BDC00013083120313B300410AF62D0310B30D39
:100BEC00FF3E031DF42D3308B4003408BF00013060
:100BFC00B3003308C10709304106031D062E072E2A
:100C0C00CC2D0230B3003308C0004108B3003308C8
:100C1C00B60043083602031C142E152ECC2D902F33
:100C2C003E08031D1A2E1B2E302E0A128A11A220EA
:100C3C000A128A1183120313891C252E262E272EA5
:100C4C00BD2D091C2A2E2B2E202E0330B300330869
:100C5C00C000902FC101C10A0930B3003308C30092
:100C6C00BF01BF0AB7017D2E07083F0503193F2EB0
:100C7C00402E6F2E0915043083120313B5000C306F
:100C8C00B4003330B300B30B492EB40B492EB50B63
:100C9C00492E831203130911823083120313B400FB
:100CAC00DD30B300B30B582EB40B582E0130831229
:100CBC000313B300410A642E0310B30DFF3E031D52
:100CCC00622E3308B4003408BF000130B30033087F
:100CDC00C10709304106031D742E752E3A2E0330C0
:100CEC00B3003308C0004108B3003308B700430811
:100CFC003702031C822E832E3A2E902F3E08031DA2
:100D0C00882E892EA72E0A128A11A2200A128A1165
:100D1C0083120313891C932E942E952E2B2E091CB3
:100D2C00982E992E8E2E0430B3003308C000043058
:100D3C00B3003308C3000A128A1147200A128A1121
:100D4C00902FC101C10A0930B3003308C300BF01A1
:100D5C00BF0AB801F42E08083F050319B62EB72EAA
:100D6C00E62E0915043083120313B5000C30B400C1
:100D7C003330B300B30BC02EB40BC02EB50BC02E4A
:100D8C00831203130911823083120313B400DD3074
:100D9C00B300B30BCF2EB40BCF2E01308312031341
:100DAC00B300410ADB2E0310B30DFF3E031DD92EF9
:100DBC003308B4003408BF000130B3003308C10756
:100DCC0009304106031DEB2EEC2EB12E0430B3007E
:100DDC003308C0004108B3003308B8004308380298
:100DEC00031CF92EFA2EB12E902F3E08031DFF2E58
:100DFC00002F212F0A128A11A2200A128A110A121C
:100E0C008A114B200A128A1183120313891C0F2F8B
:100E1C00102F152F0430B3003308C000A12E091C6D
:100E2C00182F192F0A2FC001BE01BE0A0730B300BC
:100E3C003308C300902FC101C10A0330B30033083B
:100E4C00C300BF01BF0AB901702F09083F05031980
:100E5C00302F312F602F0915043083120313B50086
:100E6C000C30B4003330B300B30B3A2FB40B3A2F21
:100E7C00B50B3A2F8312031309118230831203131B
:100E8C00B400DD30B300B30B492FB40B492F013044
:100E9C0083120313B300410A552F0310B30DFF3E09
:100EAC00031D532F3308B4003408BF000130B300C6
:100EBC003308C10704304106031D652F662F2B2F05
:100ECC00C0010730B3003308C3000230B30033084D
:100EDC00BE00902F43083902031C752F762F2B2F41
:100EEC00902F4008B300B4013408003A03197F2F47
:100EFC00902F3308003A0319312D013A0319A82D0C
:100F0C00033A0319162E013A0319842E073A0319D2
:100F1C00FB2E902F0230831203133E06031D972FD6
:100F2C00982FA32F0A128A11E7230A128A11033071
:100F3C0083120313B3003308BE0003303E06031DB7
:100F4C00A82FA92F2A2D0A128A1181200A128A1180
:100F5C000A128A1147200A128A11033083120313D2
:100F6C003A02031CBA2FBB2FBC2FE92FFF3089008C
:100F7C000B3083120313B5002630B4005D30B30080
:100F8C00B30BC62FB40BC62FB50BC62F831203138E
:100F9C0089010B3083120313B5002630B4005D3089
:100FAC00B300B30BD72FB40BD72FB50BD72F013002
:100FBC0083120313B3003308BA0703303A02031C3D
:100FCC00E82FE92FBC2FBE01BD012A2D0A128A1170
:100FDC0000280A128A1146200A128A11C300BB018A
:100FEC00BC01BD01BE01BF01C001C10183010A12D8
:040FFC008A11122D17
:08400000FF3FFF3FFF3FFF3FC0
:02400E007A3DF9
:00000001FF
