:100000000A128A11F02F00308A000408840A82073D
:100010000034013400340A34003464340034E834E9
:1000200003341034273441344E34373420343D34D3
:100030002034253475340D340A34003469346E3478
:0A0040006934633469346F3400340E
:10008A000734831603138901080003308316031308
:10009A0089000800F10071080A128A1157200A1211
:1000AA008A110800F00083160313981C5D285E2845
:1000BA00582870088312031399000800FF3083162A
:1000CA0003138500FF308600FF308700FF30880069
:1000DA0083120313890108008316031318151930B4
:1000EA009900831203139817831603139816831221
:1000FA000313181608008316031385018601870166
:10010A00880107309F008312031386018701880143
:10011A0089010800C030831603139F0041308312FF
:10012A0003139F000D30F100FB30F000F00B9B2809
:10013A00F10B9B28A0280800F401AD2874080A12C4
:10014A008A115F210A128A110130F3007308F40739
:10015A008312031341087402031CB428B528A32888
:10016A000800F4000130F2007208831203139F059D
:10017A007408F20002300310F20DFF3E031DC0287E
:10018A000310720DF30073089F040330F3009730D5
:10019A00F200F20BCE28F30BCE28D32883120313D6
:1001AA001F151F19D928DA28D6281E08F100831628
:1001BA0003131E08F0000800780879040319E628DA
:1001CA00E7281629FD01FD0AF52801300310F80D6C
:1001DA00F90DFF3E031DEB280130FC007C08FD07EA
:1001EA00F91FF828F928EA2879087B02031DFF2855
:1001FA0078087A02031C0229032909297808FA02D5
:10020A007908031CFB03FB0201300310F90CF80CFC
:10021A00FF3E031D0A290130FD02031D1529162977
:10022A00F9287B08F9007A08F8000800F501F601B8
:10023A00700871040319222923295A29F701F70A98
:10024A00312901300310F00DF10DFF3E031D27295E
:10025A000130F4007408F707F11F342935292629DB
:10026A0001300310F50DF60DFF3E031D3629710806
:10027A007302031D422970087202031C452946298C
:10028A004D297008F2027108031CF303F302751476
:10029A0001300310F10CF00CFF3E031D4E29013012
:1002AA00F702031D59295A2935297608F1007508DC
:1002BA00F0000800F200A5290130F000720A67294F
:1002CA000310F00DFF3E031D652970088500C33039
:1002DA00F100CD30F000F00B7029F10B7029C02924
:1002EA000130F000720A7B290310F00DFF3E031D56
:1002FA007929700886006C290130F000720A872972
:10030A000310F00DFF3E031D8529700887006C2934
:10031A000130F000720A93290310F00DFF3E031D0D
:10032A009129700888006C290130F000720A9F290F
:10033A000310F00DFF3E031D9D29700889006C29EA
:10034A00831203133E08F000F1017108003A031901
:10035A00AF29C0297008003A03196129013A031923
:10036A007529033A03198129013A03198D29073A94
:10037A0003199929C02908000030831203132005A4
:10038A00A80000302105A90080302205AA007F308C
:10039A002305AB002B082A0429042804031DD629A7
:1003AA00D729DF290030A3000030A2000030A100C5
:1003BA000030A00000302405A80000302505A9005F
:1003CA0080302605AA007F302705AB002B082A04B7
:1003DA0029042804031DF229F329FB290030A70068
:1003EA000030A6000030A5000030A400A31FFE299B
:1003FA00FF29232A0030A8000030A9000030AA00F3
:10040A008030AB002008A8022108031C210F0E2A05
:10041A000F2AA9022208031C220F142A152AAA024B
:10042A002308031C230F1A2A1B2AAB022B08A3003A
:10043A002A08A2002908A1002808A000A71F262A26
:10044A00272A4B2A0030A8000030A9000030AA0051
:10045A008030AB002408A8022508031C250F362A81
:10046A00372AA9022608031C260F3C2A3D2AAA027B
:10047A002708031C270F422A432AAB022B08A7008E
:10048A002A08A6002908A5002808A4008030A30687
:10049A008030A70627082302031D5D2A26082202A8
:1004AA00031D5D2A25082102031D5D2A2408200256
:1004BA000318602A612A632A0310642A03140800B5
:1004CA00F800780803196A2A6B2A7F2AF31F6E2A12
:1004DA006F2A7F2A7009FA007109FB007209FC0071
:1004EA007309FD00FA0A0319FB0A0319FC0A031926
:1004FA00FD0A872A7308FD007208FC007108FB00D8
:10050A007008FA007308720471047004031D8E2ABD
:10051A008F2A982A0030F3000030F2000030F100F0
:10052A000030F0001E2B9630F4007408F900AA2A55
:10053A000130F4007408F90701300310FD0CFC0CBB
:10054A00FB0CFA0CFF3E031DA22AFE307D05031D9B
:10055A00AF2AB02A9D2ACC2A0130F4007408F90780
:10056A000130FA07003003180130FB070030031886
:10057A000130FC07003003180130FD070130031079
:10058A00FD0CFC0CFB0CFA0CFF3E031DC42AFF30C9
:10059A007D05031DD12AD22AB12ADE2A0130F902A9
:1005AA000130F4000310FA0DFB0DFC0DFD0DF40BE8
:1005BA00D72AFC1BE12AE22AE82A02307902031828
:1005CA00E72AE82AD32A7918EB2AEC2AF42AFF30F8
:1005DA00FA05FF30FB057F30FC05FF30FD050310EF
:1005EA00F90C7908F400F501F601F7011830031047
:1005FA00F40DF50DF60DF70DFF3E031DFC2A7408E8
:10060A00FA047508FB047608FC047708FD047808E8
:10061A000319102B112B162BF31F142B152B162B2A
:10062A00FD177D08F3007C08F2007B08F1007A08C8
:10063A00F000080083120313AA002030A200220847
:10064A00A600CD2B25302B0603192C2B2D2B342B52
:10065A002B080A128A114F200A128A11CD2BA501E2
:10066A003B2BC030A2002208A504552B0130AA0753
:10067A00FF302A0784000A128A1103200A128A11FB
:10068A00AB00A200A3012308003A03194D2BCD2B7E
:10069A002208003A0319E12B753A0319362BCD2BA0
:1006AA002608840083130008A700840A0008A8000B
:1006BA000230A2002208A607AB01AB0A2B08A2004F
:1006CA002207013E84000A128A1103200A128A11A3
:1006DA00A3000A128A1103200A128A11A40024080C
:1006EA002802031D7A2B2308270203187D2B7E2B51
:1006FA007F2B892B0130A2002208AB0705302B067D
:10070A00031D882B892B632B2B08A2002208A90022
:10071A00C22B0A30F8000030F9002908A20022078B
:10072A00013E84000A128A1103200A128A11F0007B
:10073A000A128A1103200A128A11F1002808F3000A
:10074A002708F2000A128A111B210A128A1171085B
:10075A00FB007008FA000A128A11E1200A128A11B3
:10076A007808303E83120313A3002308AB002B083A
:10077A000A128A114F200A128A11FF3083120313B8
:10078A00A2002208A907290A031DCC2BCD2B8E2BE8
:10079A00013083120313AA07FF302A0784000A12C2
:1007AA008A1103200A128A11A2002208AB002B0820
:1007BA00031DE02BE12B272B08000A128A11712056
:1007CA000A128A110A128A118F200A128A118316B2
:1007DA000313860116300A128A111F230A128A117C
:1007EA00831203132E08F0002F08F100F201F3011F
:1007FA0000300A128A1165220A128A1173088312BA
:10080A000313A3007208A2007108A1007008A000D7
:10081A004430A7009630A6000030A5000030A4009E
:10082A000A128A11C1210A128A11031C1D2C1E2CBC
:10083A001F2C082D00300A128A11B6200A128A11BA
:10084A00710883120313B1007008B0003108A100C7
:10085A003008A0000B300A128A111F230A128A11CB
:10086A0000308312031331027D300319300203185A
:10087A003F2C402C422C80308600003031027D30E3
:10088A0003193002031C4A2C4B2C562C003031021F
:10089A00FA30031930020318532C542C562CC0304A
:1008AA00860000303102FA3003193002031C5E2C34
:1008BA005F2C6A2C01303102773003193002031899
:1008CA00672C682C6A2CE0308600013031027730C0
:1008DA0003193002031C722C732C7E2C0130310256
:1008EA00F4300319300203187B2C7C2C7E2CF03058
:1008FA00860001303102F43003193002031C862CC1
:10090A00872C922C023031027130031930020318FD
:10091A008F2C902C922CF8308600023031027130E4
:10092A0003193002031C9A2C9B2CA62C023031028C
:10093A00EE30031930020318A32CA42CA62CFC3089
:10094A00860002303102EE3003193002031CAE2C4D
:10095A00AF2CBA2C033031026B3003193002031862
:10096A00B72CB82CBA2CFE308600033031026B301B
:10097A0003193002031CC22CC32CCE2C04303102C2
:10098A000130031930020318CB2CCC2CCE2CFF30AB
:10099A008600C33083120313AD00CC30AC00AC0B1D
:1009AA00D42CAD0BD42C0000013083120313AE07F4
:1009BA000318AF0A0030AF072E08F0002F08F10025
:1009CA00F201F30100300A128A1165220A128A1111
:1009DA00730883120313A3007208A2007108A1000E
:1009EA007008A0004430A7009630A6000030A50089
:1009FA000030A4000A128A11C1210A128A11031CAA
:100A0A00072D082D1F2C08000A128A1180200A12AD
:100A1A008A110A128A114A200A128A1183120313AE
:100A2A000508B2003208C000BE01212D3B03031D98
:100A3A001F2D202D212D252D091C242D252D1B2D63
:100A4A00BB01BB0A782F3C08031D2C2D2D2D4F2DE1
:100A5A000A128A1180200A128A110A128A114A205D
:100A6A000A128A110A128A11A1200A128A11831201
:100A7A000313891C412D422D442DBE01912F091CBF
:100A8A00472D482D3C2DBE01BE0A0930B20032085E
:100A9A00C100912F0A128A1163200A128A11831245
:100AAA000313BD01BD0ABF01BF0A9B2D05083D0501
:100ABA000319602D612D922D09150230831203133B
:100ACA00B4008630B3009830B200B20B6A2DB30B73
:100ADA006A2DB40B6A2D00008312031309114130E9
:100AEA0083120313B300ED30B200B20B7A2DB30BAD
:100AFA007A2D7F2D013083120313B2003F0A872D0E
:100B0A000310B20DFF3E031D852D3208B3003308D2
:100B1A00BD000130B2003208BF0707303F06031D8F
:100B2A00972D982D5B2DBE01BE0A912F4108031DFA
:100B3A009F2DA02D5B2D912F3C08031DA52DA62DC1
:100B4A00BB2D0A128A11A1200A128A1183120313D9
:100B5A00891CB02DB12DB22D982D091CB52DB62D9D
:100B6A00AB2D0230B2003208BE00912FBF01BF0A7E
:100B7A000930B2003208C100BD01BD0AB5010A2E12
:100B8A0006083D050319CA2DCB2DFC2D0915023087
:100B9A0083120313B4008630B3009830B200B20B4C
:100BAA00D42DB30BD42DB40BD42D00008312031310
:100BBA000911413083120313B300ED30B200B20BB6
:100BCA00E42DB30BE42DE92D013083120313B20097
:100BDA003F0AF12D0310B20DFF3E031DEF2D32081F
:100BEA00B3003308BD000130B2003208BF07093034
:100BFA003F06031D012E022EC52D0230B200320817
:100C0A00BE003F08B2003208B50041083502031C95
:100C1A000F2E102EC52D912F3C08031D152E162EB2
:100C2A002B2E0A128A11A1200A128A118312031387
:100C3A00891C202E212E222EB62D091C252E262E69
:100C4A001B2E0330B2003208BE00912FBF01BF0A2B
:100C5A000930B2003208C100BD01BD0AB6017A2EC0
:100C6A0007083D0503193A2E3B2E6C2E0915023052
:100C7A0083120313B4008630B3009830B200B20B6B
:100C8A00442EB30B442EB40B442E000083120313DC
:100C9A000911413083120313B300ED30B200B20BD5
:100CAA00542EB30B542E592E013083120313B20063
:100CBA003F0A612E0310B20DFF3E031D5F2E32085C
:100CCA00B3003308BD000130B2003208BF07093053
:100CDA003F06031D712E722E352E0330B2003208E4
:100CEA00BE003F08B2003208B60041083602031CB3
:100CFA007F2E802E352E912F3C08031D852E862EA1
:100D0A00A42E0A128A11A1200A128A11831203132D
:100D1A00891C902E912E922E262E091C952E962EE7
:100D2A008B2E0430B2003208BE000430B200320802
:100D3A00C1000A128A1146200A128A11912FBF0194
:100D4A00BF0A0930B2003208C100BD01BD0AB701AD
:100D5A00F32E08083D050319B32EB42EE52E091506
:100D6A00023083120313B4008630B3009830B20005
:100D7A00B20BBD2EB30BBD2EB40BBD2E00008312D9
:100D8A0003130911413083120313B300ED30B2008B
:100D9A00B20BCD2EB30BCD2ED22E013083120313FC
:100DAA00B2003F0ADA2E0310B20DFF3E031DD82E01
:100DBA003208B3003308BD000130B2003208BF0761
:100DCA0009303F06031DEA2EEB2EAE2E0430B20088
:100DDA003208BE003F08B2003208B70041083702A5
:100DEA00031CF82EF92EAE2E912F3C08031DFE2E61
:100DFA00FF2E202F0A128A11A1200A128A110A1222
:100E0A008A114A200A128A1183120313891C0E2F8F
:100E1A000F2F142F0430B2003208BE009E2E091C78
:100E2A00172F182F092FBE01BC01BC0A0730B200C8
:100E3A003208C100912FBF01BF0A0330B200320845
:100E4A00C100BD01BD0AB801712F09083D0503198A
:100E5A002F2F302F612F0915023083120313B4008C
:100E6A008630B3009830B200B20B392FB30B392F4A
:100E7A00B40B392F00008312031309114130831276
:100E8A000313B300ED30B200B20B492FB30B492F55
:100E9A004E2F013083120313B2003F0A562F03105C
:100EAA00B20DFF3E031D542F3208B3003308BD00B4
:100EBA000130B2003208BF0704303F06031D662F17
:100ECA00672F2A2FBE010730B2003208C100023054
:100EDA00B2003208BC00912F41083802031C762F59
:100EEA00772F2A2F912F3E08B200B3013308003A18
:100EFA000319802F912F3208003A0319282D013A3D
:100F0A000319A12D033A0319112E013A0319812E4F
:100F1A00073A0319FA2E912F0230831203133C0663
:100F2A00031D982F992FA42F0A128A11E2230A125D
:100F3A008A11033083120313B2003208BC00033053
:100F4A003C06031DA92FAA2F212D0A128A118020DF
:100F5A000A128A110A128A1146200A128A110330C9
:100F6A00831203133902031CBB2FBC2FBD2FEA2F98
:100F7A00FF308900063083120313B4001330B30024
:100F8A00AD30B200B20BC72FB30BC72FB40BC72FAC
:100F9A00831203138901063083120313B40013303A
:100FAA00B300AD30B200B20BD82FB30BD82FB40BAD
:100FBA00D82F013083120313B2003208B907033065
:100FCA003902031CE92FEA2FBD2FBC01BB01212DD9
:100FDA000A128A1100280A128A1145200A128A1155
:100FEA00C100BA01BB01BC01BD01BE01BF01830141
:060FFA000A128A11092D04
:08400000FF3FFF3FFF3FFF3FC0
:02400E00713F00
:00000001FF
