:060000000A128A11ED2F27
:100A28000734013483160313890108000330831641
:100A3800031389000800FF30831603138500FF3075
:100A48008600FF308700FF30880083120313890176
:100A58000800831603138501860187018801073082
:100A68009F0083120313860187018801890108000A
:100A7800F40183120313240874020318080074088D
:100A88000A128A114E250A128A110130F3007308DE
:100A9800F4073D2DF200BE2D0130F000720A562DEC
:100AA8000310F00DFF3E031D542D7008831203132D
:100AB8008500C330F100CD30F000F00B612DF10B53
:100AC800612D08000130F000720A6C2D0310F00D42
:100AD800FF3E031D6A2D7008831203138600C3307E
:100AE800F100CD30F000F00B772DF10B772D0800D9
:100AF8000130F000720A822D0310F00DFF3E031D35
:100B0800802D7008831203138700C330F100CD30A5
:100B1800F000F00B8D2DF10B8D2D08000130F00049
:100B2800720A982D0310F00DFF3E031D962D7008D4
:100B3800831203138800C330F100CD30F000F00BAE
:100B4800A32DF10BA32D08000130F000720AAE2D81
:100B58000310F00DFF3E031DAC2D70088312031324
:100B68008900C330F100CD30F000F00BB92DF10B46
:100B7800B92D0800831203132208003A0319502DD7
:100B8800013A0319662D033A03197C2D013A03191A
:100B9800922D073A0319A82DD12D08000A128A119F
:100BA8002D250A128A110A128A111A250A128A1187
:100BB800831203130508F5007508A600032E230306
:100BC8000319EA2D83120313091CE32DA301A30AB9
:100BD800CB2F2508031D0B2E0A128A112D250A1268
:100BE8008A110A128A111A250A128A110A128A11FE
:100BF8003C250A128A1183120313891C052EA201AF
:100C0800E62D091CFF2DA201A20A0930842F0A1221
:100C18008A111F250A128A1183120313A101A10A3E
:100C2800FD01FD0AF8012408780203184D2E050875
:100C380021050319472E0915C330F600CD30F500FC
:100C4800F50B242EF60B242E8312031309114130C1
:100C5800F600EE30F500F50B2F2EF60B2F2E0000C8
:100C68000130F5007D0A3A2E0310F50DFF3E031DF5
:100C7800382E7508F600760883120313A100013098
:100C8800F5007508FD0707307D06031D1B2EA20120
:100C9800A20A2508031D5F2E0A128A113C250A1292
:100CA8008A1183120313891C5C2EA201A20AE62D65
:100CB800091CE62DB12EFD01FD0A0930F500750865
:100CC800A400A101A10AF901240879020318E62D5C
:100CD800060821050319982E0915C330F600CD30F2
:100CE800F500F50B752EF60B752E831203130911FB
:100CF8004130F600EE30F500F50B802EF60B802E15
:100D080000000130F5007D0A8B2E0310F50DFF3E23
:100D1800031D892E7508F600760883120313A100B7
:100D28000130F5007508FD0709307D06031D6C2E9E
:100D38000230F5007508A2007D08F5007508F90075
:100D4800682E2508031DB62E0A128A113C250A12A0
:100D58008A1183120313891CB32E0230092F091C30
:100D6800AD2E082FFD01FD0A0930F5007508A40015
:100D7800A101A10AFA0124087A020318E62D07083E
:100D880021050319EF2E0915C330F600CD30F50003
:100D9800F50BCC2EF60BCC2E831203130911413020
:100DA800F600EE30F500F50BD72EF60BD72E000027
:100DB8000130F5007D0AE22E0310F50DFF3E031DFC
:100DC800E02E7508F600760883120313A10001309F
:100DD800F5007508FD0709307D06031DC32E033095
:100DE800F5007508A2007D08F5007508FA00BF2E09
:100DF8002508031D1D2F0A128A113C250A128A1183
:100E080083120313891C0D2F0330F5007508A20007
:100E1800E62D091C042F0430F5007508A2000430E3
:100E2800F5007508A4000A128A1116250A128A11FB
:100E3800E62DFD01FD0A0930F5007508A400A101A1
:100E4800A10AFB0124087B020318E62D08082105E6
:100E58000319562F0915C330F600CD30F500F50BF0
:100E6800332FF60B332F8312031309114130F60089
:100E7800EE30F500F50B3E2FF60B3E2F000001304B
:100E8800F5007D0A492F0310F50DFF3E031D472F7E
:100E98007508F600760883120313A1000130F500E7
:100EA8007508FD0709307D06031D2A2F0430F5005B
:100EB8007508A2007D08F5007508FB00262F83122F
:100EC80003132508031D882F0A128A113C250A12CC
:100ED8008A110A128A111A250A128A118312031317
:100EE800891C802F0430F5007508A2000A128A11A7
:100EF80016250A128A11E62D091C722FA201073045
:100F0800F5007508A400E62DFD01FD0A0330F50083
:100F18007508A400A101A10AFC0124087C02031899
:100F2800E62D090821050319C12F0915C330F6005C
:100F3800CD30F500F50B9E2FF60B9E2F8312031371
:100F480009114130F600EE30F500F50BA92FF60B2C
:100F5800A92F00000130F5007D0AB42F0310F50D0C
:100F6800FF3E031DB22F7508F6007608831203139F
:100F7800A1000130F5007508FD0703307D06031D4B
:100F8800952FA2017D08F5007508FC00912F220815
:100F9800003A0319ED2D013A03194D2E033A0319AE
:100FA800A52E013A0319FC2E073A0319632FE62DE3
:100FB800E62D0230F7004530F600A930F500F50BB4
:100FC800E32FF60BE32FF70BE32FEA2F0A128A1110
:100FD8000028FD01A001A101A201A3010A128A11A2
:100FE80014250A128A11A4000A128A111525A500CF
:080FF80083010A128A11D22DB7
:02400E00713F00
:00000001FF
