:060000000A128A11F02F24
:10092E00073483160313890108000330831603135B
:10093E0089000800FF30831603138500FF30860000
:10094E00FF308700FF3088008312031389010800EF
:10095E0083160313850186018701880107309F00E6
:10096E008312031386018701880189010800F401AF
:10097E00CA2C74080A128A11D3240A128A11013061
:10098E00F3007308F4078312031326087402031C82
:10099E00D12CD22CC02C0800F200192D0130F00001
:1009AE00720ADB2C0310F00DFF3E031DD92C7008CC
:1009BE008500C330F100CD30F000F00BE42CF10BCC
:1009CE00E42C342D0130F000720AEF2C0310F00DE0
:1009DE00FF3E031DED2C70088600E02C0130F00068
:1009EE00720AFB2C0310F00DFF3E031DF92C70084C
:1009FE008700E02C0130F000720A072D0310F00D75
:100A0E00FF3E031D052D70088800E02C0130F0001C
:100A1E00720A132D0310F00DFF3E031D112D7008E9
:100A2E008900E02C831203132408F000F1017108F1
:100A3E00003A0319232D342D7008003A0319D52CD2
:100A4E00013A0319E92C033A0319F52C013A03195B
:100A5E00012D073A03190D2D342D08000A128A11A3
:100A6E00AF240A128A110A128A119C240A128A11C0
:100A7E00831203130508F5007508A500A4014D2D7A
:100A8E002103031D4B2D4C2D4D2D512D091C502D89
:100A9E00512D472DA101A10A8B2F2208031D582D80
:100AAE00592D7B2D0A128A11AF240A128A110A12AD
:100ABE008A119C240A128A110A128A11BE240A1261
:100ACE008A1183120313891C6D2D6E2D702DA401B6
:100ADE00A42F091C732D742D682DA401A40A0930AE
:100AEE00F5007508A600A42F0A128A11A1240A1275
:100AFE008A1183120313A301A30AFD01FD0AC22D5D
:100B0E000508230503198C2D8D2DB92D09150230DD
:100B1E00F7008630F6009930F500F50B942DF60BA4
:100B2E00942DF70B942D8312031309114130F60007
:100B3E00EE30F500F50BA12DF60BA12D00000130C6
:100B4E00F5007D0AAC2D0310F50DFF3E031DAA2DF9
:100B5E007508F600760883120313A3000130F50022
:100B6E007508FD0707307D06031DBE2DBF2D872D91
:100B7E00A401A40AA42F2608031DC62DC72D872D58
:100B8E00A42F2208031DCC2DCD2DE22D0A128A1181
:100B9E00BE240A128A1183120313891CD72DD82D55
:100BAE00D92DBF2D091CDC2DDD2DD22D0230F500E7
:100BBE007508A400A42FFD01FD0A0930F500750883
:100BCE00A600A301A30AF8012C2E0608230503197B
:100BDE00F12DF22D1E2E09150230F7008630F6008B
:100BEE009930F500F50BF92DF60BF92DF70BF92DC4
:100BFE008312031309114130F600EE30F500F50BA8
:100C0E00062EF60B062E00000130F5007D0A112E81
:100C1E000310F50DFF3E031D0F2E7508F600760826
:100C2E0083120313A3000130F5007508FD07093088
:100C3E007D06031D232E242EEC2D0230F5007508A3
:100C4E00A4007D08F5007508F80026087802031C3C
:100C5E00312E322EEC2DA42F2208031D372E382EC6
:100C6E004D2E0A128A11BE240A128A118312031300
:100C7E00891C422E432E442EDD2D091C472E482E54
:100C8E003D2E0330F5007508A400A42FFD01FD0ACA
:100C9E000930F5007508A600A301A30AF901972EE5
:100CAE000708230503195C2E5D2E892E09150230C7
:100CBE00F7008630F6009930F500F50B642EF60B32
:100CCE00642EF70B642E8312031309114130F600C4
:100CDE00EE30F500F50B712EF60B712E0000013083
:100CEE00F5007D0A7C2E0310F50DFF3E031D7A2EB6
:100CFE007508F600760883120313A3000130F50081
:100D0E007508FD0709307D06031D8E2E8F2E572E7A
:100D1E000330F5007508A4007D08F5007508F9008C
:100D2E0026087902031C9C2E9D2E572EA42F2208D6
:100D3E00031DA22EA32EC12E0A128A11BE240A1240
:100D4E008A1183120313891CAD2EAE2EAF2E482EA0
:100D5E00091CB22EB32EA82E0430F5007508A4007F
:100D6E000430F5007508A6000A128A1198240A129A
:100D7E008A11A42FFD01FD0A0930F5007508A600A1
:100D8E00A301A30AFA010B2F080823050319D02E7D
:100D9E00D12EFD2E09150230F7008630F60099305F
:100DAE00F500F50BD82EF60BD82EF70BD82E831296
:100DBE00031309114130F600EE30F500F50BE52E68
:100DCE00F60BE52E00000130F5007D0AF02E031023
:100DDE00F50DFF3E031DEE2E7508F6007608831204
:100DEE000313A3000130F5007508FD0709307D06D9
:100DFE00031D022F032FCB2E0430F5007508A4001F
:100E0E007D08F5007508FA0026087A02031C102FDB
:100E1E00112FCB2EA42F2208031D162F172F382F7C
:100E2E000A128A11BE240A128A110A128A119C24ED
:100E3E000A128A1183120313891C262F272F2C2F97
:100E4E000430F5007508A400BB2E091C2F2F302F7F
:100E5E00212FA401A201A20A0730F5007508A600F1
:100E6E00A42FFD01FD0A0330F5007508A600A301AD
:100E7E00A30AFB01842F090823050319472F482FC6
:100E8E00742F09150230F7008630F6009930F50000
:100E9E00F50B4F2FF60B4F2FF70B4F2F831203131C
:100EAE0009114130F600EE30F500F50B5C2FF60B14
:100EBE005C2F00000130F5007D0A672F0310F50D41
:100ECE00FF3E031D652F7508F60076088312031387
:100EDE00A3000130F5007508FD0704307D06031DE3
:100EEE00792F7A2F422FA4010730F5007508A6003E
:100EFE000230F5007508A200A42F26087B02031C01
:100F0E00892F8A2F422FA42F2408F500F601760888
:100F1E00003A0319932FA42F7508003A0319542D84
:100F2E00013A0319C82D033A0319332E013A031956
:100F3E009E2E073A0319122FA42F02308312031389
:100F4E002206031DAB2FAC2F4D2D0A128A11AF2492
:100F5E000A128A110A128A1198240A128A1103306F
:100F6E007C02031CBB2FBC2FBD2FE82FFF3083123A
:100F7E00031389000630F7001330F600AD30F5008C
:100F8E00F50BC72FF60BC72FF70BC72FCE2F8312DC
:100F9E00031389010630F7001330F600AD30F5006B
:100FAE00F50BD72FF60BD72FF70BD72FDE2F0130E0
:100FBE00F5007508FC0703307C02031CE72FE82FB1
:100FCE00BD2F83120313A201A1014D2D0A128A1106
:100FDE0000280A128A1197240A128A11A600A0016B
:100FEE00A101A201A301A401FD0183010A128A112C
:020FFE00352D8F
:08400000FF3FFF3FFF3FFF3FC0
:02400E00713F00
:00000001FF
