:060000000A128A11F22F22
:100A34000734831603138901080003308316031354
:100A440089000800FF30831603138500FF308600F9
:100A5400FF308700FF3088008312031389010800E8
:100A640083160313850186018701880107309F00DF
:100A74008312031386018701880189010800F401A8
:100A840083120313260874020318080074080A1258
:100A94008A1153250A128A110130F3007308F407EE
:100AA400422DF200C32D0130F000720A5B2D0310B9
:100AB400F00DFF3E031D592D7008831203138500AA
:100AC400C330F100CD30F000F00B662DF10B662D34
:100AD40008000130F000720A712D0310F00DFF3E82
:100AE400031D6F2D7008831203138600C330F100B9
:100AF400CD30F000F00B7C2DF10B7C2D0800013083
:100B0400F000720A872D0310F00DFF3E031D852DA2
:100B14007008831203138700C330F100CD30F00056
:100B2400F00B922DF10B922D08000130F000720AA7
:100B34009D2D0310F00DFF3E031D9B2D70088312A5
:100B440003138800C330F100CD30F000F00BA82D62
:100B5400F10BA82D08000130F000720AB32D031028
:100B6400F00DFF3E031DB12D70088312031389009D
:100B7400C330F100CD30F000F00BBE2DF10BBE2DD3
:100B84000800831203132308003A0319552D013A70
:100B940003196B2D033A0319812D013A0319972D7B
:100BA400073A0319AD2DD62D08000A128A113225F1
:100BB4000A128A110A128A111F250A128A11831233
:100BC40003130508F5007508A500082E240303196E
:100BD400EF2D83120313091CE82DA401A40AD02FBE
:100BE4002208031D102E0A128A1132250A128A11B4
:100BF4000A128A111F250A128A110A128A11412522
:100C04000A128A1183120313891C0A2EA301EB2DE5
:100C1400091C042EA301A30A0930892F0A128A1180
:100C240024250A128A1183120313A101A10AFD01CA
:100C3400FD0AF801260878020318522E050821053A
:100C440003194C2E0915C330F600CD30F500F50B11
:100C5400292EF60B292E8312031309114130F600B5
:100C6400EE30F500F50B342EF60B342E0000013077
:100C7400F5007D0A3F2E0310F50DFF3E031D3D2EAA
:100C84007508F600760883120313A1000130F500FD
:100C94007508FD0707307D06031D202EA301A30A56
:100CA4002208031D642E0A128A1141250A128A1190
:100CB40083120313891C612EA301A30AEB2D091CC3
:100CC4005A2EB62EFD01FD0A0930F5007508A6005E
:100CD400A101A10AF901260879020318EB2D0608DF
:100CE400210503199D2E0915C330F600CD30F500FA
:100CF400F50B7A2EF60B7A2E831203130911413069
:100D0400F600EE30F500F50B852EF60B852E00006F
:100D14000130F5007D0A902E0310F50DFF3E031DF2
:100D24008E2E7508F600760883120313A100013095
:100D3400F5007508FD0709307D06031D712E02308C
:100D4400F5007508A3007D08F5007508F9006D2EFF
:100D54002208031DBB2E0A128A1141250A128A1188
:100D640083120313891CB82E02300E2F091CB22ED5
:100D74000D2FFD01FD0A0930F5007508A600A1013B
:100D8400A10AFA0126087A020318EB2D07082105A7
:100D94000319F42E0915C330F600CD30F500F50B18
:100DA400D12EF60BD12E8312031309114130F60014
:100DB400EE30F500F50BDC2EF60BDC2E00000130D6
:100DC400F5007D0AE72E0310F50DFF3E031DE52E09
:100DD4007508F600760883120313A1000130F500AC
:100DE4007508FD0709307D06031DC82E0330F50084
:100DF4007508A3007D08F5007508FA00C42E2208C2
:100E0400031D222F0A128A1141250A128A11831204
:100E14000313891C122F0330F5007508A300EB2D72
:100E2400091C092F0430F5007508A3000430F500EF
:100E34007508A6000A128A111B250A128A11EB2DC5
:100E4400FD01FD0A0930F5007508A600A101A10AFB
:100E5400FB0126087B020318EB2D08082105031962
:100E64005B2F0915C330F600CD30F500F50B382F94
:100E7400F60B382F8312031309114130F600EE30BC
:100E8400F500F50B432FF60B432F00000130F5005E
:100E94007D0A4E2F0310F50DFF3E031D4C2F7508E0
:100EA400F600760883120313A1000130F5007508DB
:100EB400FD0709307D06031D2F2F0430F50075084A
:100EC400A3007D08F5007508FB002B2F8312031384
:100ED4002208031D8D2F0A128A1141250A128A1134
:100EE4000A128A111F250A128A1183120313891CFC
:100EF400852F0430F5007508A3000A128A111B25FA
:100F04000A128A11EB2D091C772FA3010730F50073
:100F14007508A600EB2DFD01FD0A0330F5007508E8
:100F2400A600A101A10AFC0126087C020318EB2DEE
:100F3400090821050319C62F0915C330F600CD3061
:100F4400F500F50BA32FF60BA32F8312031309113E
:100F54004130F600EE30F500F50BAE2FF60BAE2F58
:100F640000000130F5007D0AB92F0310F50DFF3E96
:100F7400031DB72F7508F600760883120313A1002A
:100F84000130F5007508FD0703307D06031D9A2F17
:100F9400A3017D08F5007508FC00962F2308003A8C
:100FA4000319F22D013A0319522E033A0319AA2EFA
:100FB400013A0319012F073A0319682FEB2DEB2D82
:100FC4000230F7004530F600A930F500F50BE82FA4
:100FD400F60BE82FF70BE82FEF2F0A128A110028DF
:100FE400FD01A001A101A201A301A4010A128A1119
:0C0FF4001A25A60083010A128A11D72DCD
:02400E00713F00
:00000001FF
