:060000000A128A11F02F24
:1009C60007348316031389010800033083160313C3
:1009D60089000800FF30831603138500FF30860068
:1009E600FF308700FF308800831203138901080057
:1009F60083160313850186018701880107309F004E
:100A06008312031386018701880189010800F40116
:100A1600162D74080A128A111D250A128A11013030
:100A2600F3007308F4077D087402031C1B2D1C2DAC
:100A36000C2D0800F200632D0130F000720A252DFE
:100A46000310F00DFF3E031D232D70088500C330F3
:100A5600F100CD30F000F00B2E2DF10B2E2D7E2D5A
:100A66000130F000720A392D0310F00DFF3E031D10
:100A7600372D700886002A2D0130F000720A452DA8
:100A86000310F00DFF3E031D432D700887002A2D2D
:100A96000130F000720A512D0310F00DFF3E031DC8
:100AA6004F2D700888002A2D0130F000720A5D2D46
:100AB6000310F00DFF3E031D5B2D700889002A2DE3
:100AC600831203132408F000F1017108003A031998
:100AD6006D2D7E2D7008003A03191F2D013A03195A
:100AE600332D033A03193F2D013A03194B2D073ACB
:100AF6000319572D7E2D08000A128A11FB240A12AB
:100B06008A110A128A11E8240A128A11831203131F
:100B16000508F5007508A500A401972D2203031DFD
:100B2600952D962D972D9D2D83120313091C9C2D13
:100B36009D2D912DA201A20AD42F2108031DA42DBB
:100B4600A52DC62D0A128A11FB240A128A110A1231
:100B56008A11E8240A128A110A128A110A250A122F
:100B66008A1183120313891CB92DBA2DBB2D8F2D23
:100B7600091CBE2DBF2DB42DA401A40A0930F50011
:100B86007508FD00972D0A128A11ED240A128A11A2
:100B960083120313A301A30AFC01FC0A0D2E050808
:100BA60023050319D72DD82D042E09150230F70079
:100BB6008630F6009930F500F50BDF2DF60BDF2DAC
:100BC600F70BDF2D8312031309114130F600EE30C7
:100BD600F500F50BEC2DF60BEC2D00000130F500C1
:100BE6007C0AF72D0310F50DFF3E031DF52D750844
:100BF600F600760883120313A3000130F50075088A
:100C0600FC0707307C06031D092E0A2ED22DA401EF
:100C1600A40A122E7D08031D112E122ED22D210894
:100C2600031D162E172E2E2E0A128A110A250A12B7
:100C36008A1183120313891C212E222E252EA4012C
:100C4600A40A972D091C282E292E1C2E0230F500E9
:100C56007508A400972DFC01FC0A0930F5007508FB
:100C6600FD00A301A30AF801782E0608230503193F
:100C76003D2E3E2E6A2E09150230F7008630F6000C
:100C86009930F500F50B452EF60B452EF70B452E44
:100C96008312031309114130F600EE30F500F50B0F
:100CA600522EF60B522E00000130F5007C0A5D2E06
:100CB6000310F50DFF3E031D5B2E7508F600760842
:100CC60083120313A3000130F5007508FC070930F1
:100CD6007C06031D6F2E702E382E0230F500750827
:100CE600A4007C08F5007508F8007D087802031C4E
:100CF6007D2E7E2E382E972D2108031D832E842EC1
:100D0600992E0A128A110A250A128A1183120313CE
:100D1600891C8E2E8F2E902E292E091C932E942EF2
:100D2600892E0330F5007508A400972DFC01FC0AF6
:100D36000930F5007508FD00A301A30AF901E32EA9
:100D4600070823050319A82EA92ED52E091502304A
:100D5600F7008630F6009930F500F50BB02EF60B4D
:100D6600B02EF70BB02E8312031309114130F60093
:100D7600EE30F500F50BBD2EF60BBD2E0000013052
:100D8600F5007C0AC82E0310F50DFF3E031DC62E86
:100D96007508F600760883120313A3000130F500E8
:100DA6007508FC0709307C06031DDA2EDB2EA32E00
:100DB6000330F5007508A4007C08F5007508F900F5
:100DC6007D087902031CE82EE92EA32E972D210813
:100DD600031DEE2EEF2E0D2F0A128A110A250A1276
:100DE6008A1183120313891CF92EFA2EFB2E942ED8
:100DF600091CFE2EFF2EF42E0430F5007508A40003
:100E06000430F5007508FD000A128A11E4240A125E
:100E16008A11972DFC01FC0A0930F5007508FD00C2
:100E2600A301A30AFA01572F0808230503191C2F4B
:100E36001D2F492F09150230F7008630F60099302C
:100E4600F500F50B242FF60B242FF70B242F831216
:100E5600031309114130F600EE30F500F50B312F82
:100E6600F60B312F00000130F5007C0A3C2F0310F1
:100E7600F50DFF3E031D3A2F7508F600760883121E
:100E86000313A3000130F5007508FC0709307C0642
:100E9600031D4E2F4F2F172F0430F5007508A400A1
:100EA6007C08F5007508FA007D087A02031C5C2FA1
:100EB6005D2F172F972D2108031D622F632F842F77
:100EC6000A128A110A250A128A110A128A11E824BC
:100ED6000A128A1183120313891C722F732F782F1B
:100EE6000430F5007508A400072F091C7B2F7C2F02
:100EF6006D2FA401A101A10A0730F5007508FD00B8
:100F0600972DFC01FC0A0330F5007508FD00A301CE
:100F1600A30AFB01CD2F090823050319932F942F4C
:100F2600C02F09150230F7008630F6009930F5001B
:100F3600F50B9B2FF60B9B2FF70B9B2F831203139F
:100F460009114130F600EE30F500F50BA82FF60B2F
:100F5600A82F00000130F5007C0AB32F0310F50D11
:100F6600FF3E031DB12F7508F600760883120313A2
:100F7600A3000130F5007508FC0704307C06031D4C
:100F8600C52FC62F8E2FA4010730F5007508FD006A
:100F9600A101972D7D087B02031CD22FD32F8E2F04
:100FA600972D2408F500F6017608003A0319DC2F80
:100FB600972D7508003A0319A02D013A0319122E30
:100FC600033A03197F2E013A0319EA2E073A031949
:100FD6005E2F972D0A128A1100280A128A11E3241D
:100FE6000A128A11FD00A001A101A201A301A40118
:0A0FF600FC0183010A128A117F2D0D
:08400000FF3FFF3FFF3FFF3FC0
:02400E00713F00
:00000001FF
