:060000000A128A11EC2F28
:100C4C00013407348316031389010800033083161B
:100C5C00031389000800FF30831603138500FF304F
:100C6C008600FF308700FF30880083120313890150
:100C7C000800FC0183160313850186018701880196
:100C8C0007309F00831203138601870188018901B5
:100C9C000800F4015B2E74080A128A1162260A12EB
:100CAC008A110130F3007308F4077D087402031CE9
:100CBC00602E612E512E0800F200B22E0130F00091
:100CCC00720A6A2E0310F00DFF3E031D682E700889
:100CDC00831203138500C330F100CD30F000F00B0C
:100CEC00752EF10B752ECB2E0130F000720A802E72
:100CFC000310F00DFF3E031D7E2E700883120313AC
:100D0C008600712E0130F000720A8E2E0310F00D49
:100D1C00FF3E031D8C2E7008831203138700712E67
:100D2C000130F000720A9C2E0310F00DFF3E031DE3
:100D3C009A2E7008831203138800712E0130F00074
:100D4C00720AAA2E0310F00DFF3E031DA82E700888
:100D5C00831203138900712E7C08F000F1017108D5
:100D6C00003A0319BA2ECB2E7008003A0319642EE0
:100D7C00013A03197A2E033A0319882E013A031902
:100D8C00962E073A0319A42ECB2E08000A128A11AC
:100D9C003F260A128A110A128A112C260A128A116B
:100DAC00831203130508F5007508A000FC01E42E5E
:100DBC007A03031DE22EE32EE42EEA2E8312031394
:100DCC00091CE92EEA2EDE2EFA01FA0AC22FFC01CA
:100DDC00FC0A0930F5007508FD00DB2F0A128A1198
:100DEC0031260A128A11F9012E2F0130F500790AE9
:100DFC00012F0310F50DFF3E031DFF2E7508F600A5
:100E0C007608FB008312031305087B0503190F2FCB
:100E1C00102F1A2F0915C330F600CD30F500F50B45
:100E2C00152FF60B152F2A2F06307906031D1F2FB1
:100E3C00202F282FFC01FC0A0930F5007508FD0055
:100E4C0009112A2F0911082F0130F5007508F9072F
:100E5C007D087902031C332F342FFB2EDB2FA101CD
:100E6C00A10A3D2F0230F5007508FC00DB2F0A1299
:100E7C008A1131260A128A11F801692F0130F50006
:100E8C00780A4A2F0310F50DFF3E031D482F7508F5
:100E9C00F6007608FB008312031306087B05031982
:100EAC00582F592F632F0915C330F600CD30F5009C
:100EBC00F50B5E2FF60B5E2F652F0911512F0130AC
:100ECC00F5007508F8077D087802031C6E2F6F2F4C
:100EDC00442FED2E0A128A114F260A128A11831200
:100EEC000313891C7A2F7B2F7C2F382F091C7F2F03
:100EFC00802F752F0330F5007508FC00DB2F0A12CC
:100F0C008A114F260A128A1183120313891C8F2F00
:100F1C00902F912F802F091C942F952F8A2F0430FE
:100F2C00F5007508FC000430F5007508FD000A1288
:100F3C008A1128260A128A11DB2F0A128A114F26CF
:100F4C000A128A110A128A112C260A128A11831289
:100F5C000313891CB22FB32FB82F0430F50075087A
:100F6C00FC009D2F091CBB2FBC2FAD2FFC010730A3
:100F7C00F5007508FD00DB2F7C08F500F6017608FE
:100F8C00003A0319CA2FDB2F7508003A0319F42E07
:100F9C00013A0319352F033A0319702F013A03193B
:100FAC00852F073A0319A32FDB2F0230F7004530AA
:100FBC00F600A930F500F50BE12FF60BE12FF70B3E
:100FCC00E12FE82FE42E0A128A1100280A128A1146
:100FDC0026260A128A11A2000A128A1127260A1240
:100FEC008A11FD00A101FA01FB01FC0183010A1227
:040FFC008A11CC2E5C
:08400000FF3FFF3FFF3FFF3FC0
:02400E00713F00
:00000001FF
