:100000000A128A11F02F00308A000408840A82073D
:100010000034013400340A34003464340034E834E9
:1000200003341034273441344E34313420343D34D9
:100030002034253475340D340A34003469346E3478
:0A0040006934633469346F3400340E
:10008600073483160313890108000330831603130C
:1000960089000800F10071080A128A1155200A1217
:1000A6008A110800F00083160313981C5B285C284D
:1000B600562870088312031399000800FF30831630
:1000C60003138500FF308600FF308700FF3088006D
:1000D6008312031389010800831603138501860121
:1000E6008701880107309F00831203138601870169
:1000F600880189010800C030831603139F00093068
:10010600831203139F001A30F100F830F000F00B51
:100116008A28F10B8A2800000800F4019C2874083C
:100126000A128A114E210A128A110130FF007F0835
:10013600F4078312031343087402031CA328A4289C
:1001460092280800F4000130FF007F088312031391
:100156009F057408F20002300310F20DFF3E031DE6
:10016600AF280310720DFF007F089F040630F300CE
:100176003030F200F20BBD28F30BBD2800008312CD
:1001860003131F151F19C828C928C5281E08F10002
:10019600831603131E08F000080077087804031975
:1001A600D528D6280529FB01FB0AE42801300310CF
:1001B600F70DF80DFF3E031DDA280130FF007F081A
:1001C600FB07F81FE728E828D92878087A02031DD4
:1001D600EE2877087902031CF128F228F828770818
:1001E600F9027808031CFA03FA0201300310F80C2E
:1001F600F70CFF3E031DF9280130FB02031D0429FD
:100206000529E8287A08F8007908F7000800F401BB
:10021600F501700871040319112912294929F601FB
:10022600F60A202901300310F00DF10DFF3E031DE3
:1002360016290130FF007F08F607F11F232924291C
:10024600152901300310F40DF50DFF3E031D252978
:1002560071087302031D312970087202031C3429C8
:1002660035293C297008F2027108031CF303F302D6
:10027600741401300310F10CF00CFF3E031D3D29F0
:100286000130F602031D4829492924297508F10081
:100296007408F0000800F30098290130F000730A92
:1002A60056290310F00DFF3E031D542970088500E2
:1002B6000230F2008630F1009930F000F00B61292F
:1002C600F10B6129F20B6129B3290130F000730AA1
:1002D6006E290310F00DFF3E031D6C297008860081
:1002E6005B290130F000730A7A290310F00DFF3EF6
:1002F600031D7829700887005B290130F000730A16
:1003060086290310F00DFF3E031D8429700888001E
:100316005B290130F000730A92290310F00DFF3EAD
:10032600031D9029700889005B2983120313400876
:10033600F000F1017108003A0319A229B3297008E7
:10034600003A03195029013A03196829033A031997
:100356007429013A03198029073A03198C29B3290C
:1003660008000030831203132005A8000030210581
:10037600A90080302205AA007F302305AB002B0898
:100386002A0429042804031DC929CA29D2290030B0
:10039600A3000030A2000030A1000030A000003011
:1003A6002405A80000302505A90080302605AA00EE
:1003B6007F302705AB002B082A0429042804031DD7
:1003C600E529E629EE290030A7000030A600003016
:1003D600A5000030A400A31FF129F229162A003037
:1003E600A8000030A9000030AA008030AB00200829
:1003F600A8022108031C210F012A022AA9022208A9
:10040600031C220F072A082AAA022308031C230F0B
:100416000D2A0E2AAB022B08A3002A08A2002908DF
:10042600A1002808A000A71F192A1A2A3E2A003070
:10043600A8000030A9000030AA008030AB002408D4
:10044600A8022508031C250F292A2A2AA9022608FC
:10045600031C260F2F2A302AAA022708031C270F5F
:10046600352A362AAB022B08A7002A08A600290837
:10047600A5002808A4008030A3068030A706270818
:100486002302031D502A26082202031D502A25088E
:100496002102031D502A240820020318532A542A35
:1004A600562A0310572A03140800F800780803197F
:1004B6005D2A5E2A722AF31F612A622A722A70094D
:1004C600FA007109FB007209FC007309FD00FA0AC3
:1004D6000319FB0A0319FC0A0319FD0A7A2A730891
:1004E600FD007208FC007108FB007008FA00730832
:1004F600720471047004031D812A822A8B2A00303B
:10050600F3000030F2000030F1000030F000112B53
:100516009630FF007F08F9009D2A0130FF007F0812
:10052600F90701300310FD0CFC0CFB0CFA0CFF3E26
:10053600031D952AFE307D05031DA22AA32A902AB3
:10054600BF2A0130FF007F08F9070130FA070030A3
:1005560003180130FB07003003180130FC07003098
:1005660003180130FD0701300310FD0CFC0CFB0CD9
:10057600FA0CFF3E031DB72AFF307D05031DC42A72
:10058600C52AA42AD12A0130F9020130F400031049
:10059600FA0DFB0DFC0DFD0DF40BCA2AFC1BD42A2B
:1005A600D52ADB2A023079020318DA2ADB2AC62A80
:1005B6007918DE2ADF2AE72AFF30FA05FF30FB0525
:1005C6007F30FC05FF30FD050310F90C7908F400B7
:1005D600F501F601F70118300310F40DF50DF60DCF
:1005E600F70DFF3E031DEF2A7408FA047508FB0495
:1005F6007608FC047708FD0478080319032B042BFE
:10060600092BF31F072B082B092BFD177D08F30079
:100616007C08F2007B08F1007A08F00008008312DB
:100626000313A8007C30FF007F08A400BF2B2530F1
:10063600290603191F2B202B272B29080A128A119A
:100646004D200A128A11BF2BA3012E2BC030FF00AA
:100656007F08A304482B0130A807FF302807840031
:100666000A128A1103200A128A11A900A000A10108
:100676002108003A0319402BBF2B2008003A031922
:10068600D32B753A0319292BBF2B240884000008A5
:10069600A500840A0008A6000230FF007F08A40710
:1006A600A901A90A2908A0002007013E84000A1210
:1006B6008A1103200A128A11A1000A128A11032044
:1006C6000A128A11A20022082602031D6C2B210899
:1006D600250203186F2B702B712B7B2B0130FF002B
:1006E6007F08A90705302906031D7A2B7B2B552B7E
:1006F6002908FF007F08A700B42B0A30F700003056
:10070600F8002708A0002007013E84000A128A117B
:1007160003200A128A11F0000A128A1103200A1213
:100726008A11F1002608F3002508F2000A128A1140
:100736000A210A128A117108FA007008F9000A12D1
:100746008A11D0200A128A117708303EFF007F08EE
:1007560083120313A90029080A128A114D200A12CE
:100766008A11FF30FF007F0883120313A707270AA9
:10077600031DBE2BBF2B802B013083120313A8074A
:10078600FF30280784000A128A1103200A128A11F0
:10079600FF007F08A9002908031DD22BD32B1A2B93
:1007A60008000A128A117E200A128A118316031380
:1007B600870116300A128A1112230A128A1183122D
:1007C60003132F08F0003008F100F201F3010030A6
:1007D6000A128A1158220A128A1173088312031305
:1007E600A3007208A2007108A1007008A00044309E
:1007F600A7009630A6000030A5000030A4000A121B
:100806008A11B4210A128A11031C0A2C0B2C0C2CF7
:10081600F92C01300A128A11A5200A128A117108D0
:1008260083120313B2007008B1003208FD003108CC
:10083600FC000B300A128A1112230A128A110030A8
:100846008312031332027D300319310203182C2C54
:100856002D2C2F2C80308700003032027D3003197A
:100866003102031C372C382C432C00303202FA306C
:10087600031931020318402C412C432CC030870049
:1008860000303202FA3003193102031C4B2C4C2C77
:10089600572C013032027730031931020318542CD9
:1008A600552C572CE030870001303202773003197F
:1008B6003102031C5F2C602C6B2C01303202F430A9
:1008C600031931020318682C692C6B2CF030870051
:1008D60001303202F43003193102031C732C742CDC
:1008E6007F2C0230320271300319310203187C2C3E
:1008F6007D2C7F2CF83087000230320271300319CC
:100906003102031C872C882C932C02303202EE30E5
:10091600031931020318902C912C932CFC3087007C
:1009260002303202EE3003193102031C9B2C9C2C40
:10093600A72C033032026B30031931020318A42CA2
:10094600A52CA72CFE308700033032026B3003192A
:100956003102031CAF2CB02CBB2C04303202013008
:10096600031931020318B82CB92CBB2CFF308700B1
:10097600023083120313AE008630AD009830AC000F
:10098600AC0BC32CAD0BC32CAE0BC32C000001303B
:1009960083120313AF070318B00A0030B0072F08FD
:1009A600F0003008F100F201F30100300A128A115A
:1009B60058220A128A11730883120313A3007208BD
:1009C600A2007108A1007008A0004430A70096306C
:1009D600A6000030A5000030A4000A128A11B42136
:1009E6000A128A11031CF82CF92C0C2C08000A1286
:1009F6008A116F200A128A110A128A1148200A12D5
:100A06008A11831203130508FF007F08C200C00184
:100A1600122D3D03031D102D112D122D162D091C0F
:100A2600152D162D0C2DBD01BD0A782F3E08031D70
:100A36001D2D1E2D402D0A128A116F200A128A11B1
:100A46000A128A1148200A128A110A128A11902063
:100A56000A128A1183120313891C322D332D352D68
:100A6600C001912F091C382D392D2D2DC001C00A2A
:100A76000930FF007F08C300912F3E03031D442D5C
:100A8600452D912F0A128A1161200A128A118312AA
:100A96000313BF01BF0AC101C10A8F2D05083F0517
:100AA6000319562D572D862D09150430831203136D
:100AB600B5000C30B4003330B300B30B602DB40B6B
:100AC600602DB50B602D831203130911823083123A
:100AD6000313B400DD30B300B30B6F2DB40B6F2DD1
:100AE600013083120313B300410A7B2D0310B30DAB
:100AF600FF3E031D792D3308FF007F08BF0001303C
:100B0600FF007F08C10707304106031D8B2D8C2D82
:100B1600512DC001C00A912F4308031D932D942D1A
:100B2600512D912F3E08031D992D9A2DAF2D0A1296
:100B36008A1190200A128A1183120313891CA42D8C
:100B4600A52DA62D8C2D091CA92DAA2D9F2D023071
:100B5600FF007F08C000912F3E03031DB32DB42D67
:100B6600082EC101C10A0930FF007F08C300BF017A
:100B7600BF0AB701012E06083F050319C32DC42D70
:100B8600F32D0915043083120313B5000C30B4009D
:100B96003330B300B30BCD2DB40BCD2DB50BCD2D0E
:100BA600831203130911823083120313B400DD305C
:100BB600B300B30BDC2DB40BDC2D01308312031311
:100BC600B300410AE82D0310B30DFF3E031DE62DC9
:100BD6003308FF007F08BF000130FF007F08C10710
:100BE60009304106031DF82DF92DBE2D0230FF00F8
:100BF6007F08C0004108FF007F08B700430837029E
:100C0600031C062E072EBE2D912F3E08031D0C2E0B
:100C16000D2E222E0A128A1190200A128A11831290
:100C26000313891C172E182E192EAA2D091C1C2EEB
:100C36001D2E122E0330FF007F08C000912F3E03A9
:100C4600031D262E272E7B2EC101C10A0930FF0067
:100C56007F08C300BF01BF0AB801742E07083F050D
:100C66000319362E372E662E091504308312031308
:100C7600B5000C30B4003330B300B30B402EB40BC8
:100C8600402EB50B402E83120313091182308312B6
:100C96000313B400DD30B300B30B4F2EB40B4F2E4D
:100CA600013083120313B300410A5B2E0310B30D08
:100CB600FF3E031D592E3308FF007F08BF00013099
:100CC600FF007F08C10709304106031D6B2E6C2EFD
:100CD600312E0330FF007F08C0004108FF007F0867
:100CE600B80043083802031C792E7A2E312E912F34
:100CF6003E08031D7F2E802E9E2E0A128A119020FA
:100D06000A128A1183120313891C8A2E8B2E8C2EAB
:100D16001D2E091C8F2E902E852E0430FF007F0875
:100D2600C0000430FF007F08C3000A128A11442065
:100D36000A128A11912F3E03031DA22EA32EF72E0F
:100D4600C101C10A0930FF007F08C300BF01BF0A05
:100D5600B901F02E08083F050319B22EB32EE22E74
:100D66000915043083120313B5000C30B400333078
:100D7600B300B30BBC2EB40BBC2EB50BBC2E83122A
:100D860003130911823083120313B400DD30B3005C
:100D9600B30BCB2EB40BCB2E013083120313B3004F
:100DA600410AD72E0310B30DFF3E031DD52E33087F
:100DB600FF007F08BF000130FF007F08C107093030
:100DC6004106031DE72EE82EAD2E0430FF007F08F6
:100DD600C0004108FF007F08B90043083902031C20
:100DE600F52EF62EAD2E912F3E08031DFB2EFC2E62
:100DF6001D2F0A128A1190200A128A110A128A11CC
:100E060048200A128A1183120313891C0B2F0C2FF8
:100E1600112F0430FF007F08C000982E091C142FE4
:100E2600152F062FC001BE01BE0A0730FF007F083E
:100E3600C300912F3E03031D212F222F912FC101A5
:100E4600C10A0330FF007F08C300BF01BF0ABA0111
:100E5600712F09083F050319312F322F612F09150C
:100E6600043083120313B5000C30B4003330B300E2
:100E7600B30B3B2FB40B3B2FB50B3B2F8312031346
:100E86000911823083120313B400DD30B300B30BB3
:100E96004A2FB40B4A2F013083120313B300410AC1
:100EA600562F0310B30DFF3E031D542F3308FF00CA
:100EB6007F08BF000130FF007F08C10704304106EC
:100EC600031D662F672F2C2FC0010730FF007F08F8
:100ED600C3000230FF007F08BE00912F43083A028C
:100EE600031C762F772F2C2F912F4008B300B401C7
:100EF6003408003A0319802F912F3308003A03195A
:100F0600192D013A0319952D033A0319082E013AB2
:100F160003197B2E073A0319F72E912F02308312FD
:100F260003133E06031D982F992FA42F0A128A1128
:100F3600D4230A128A110330FF007F088312031399
:100F4600BE0003303E06031DA92FAA2F122D0A123A
:100F56008A116F200A128A110A128A1144200A1273
:100F66008A110330831203133B02031CBB2FBC2FD1
:100F7600BD2FEA2FFF3089000B3083120313B50013
:100F86002630B4005D30B300B30BC72FB40BC72FA8
:100F9600B50BC72F8312031389010B30831203137A
:100FA600B5002630B4005D30B300B30BD82FB40BB8
:100FB600D82FB50BD82F0130FF007F0883120313FB
:100FC600BB0703303B02031CE92FEA2FBD2FBE01EE
:100FD600BD01122D0A128A1100280A128A11432015
:100FE6000A128A11C300BC01BD01BE01BF01C001C6
:0A0FF600C10183010A128A11FA2CCE
:08400000FF3FFF3FFF3FFF3FC0
:02400E007A3DF9
:00000001FF
