:100000000A128A11F02F00308A000408840A82073D
:100010000034013400340A34003464340034E834E9
:1000200003341034273441344E34373420343D34D3
:100030002034253475340D340A34003469346E3478
:0A0040006934633469346F3400340E
:10008E000734831603138901080003308316031304
:10009E0089000800F10071080A128A1159200A120B
:1000AE008A110800F00083160313981C5F2860283D
:1000BE005A2870088312031399000800FF30831624
:1000CE0003138500FF308600FF308700FF30880065
:1000DE0083120313890108008316031318151930B0
:1000EE00990083120313981783160313981683121D
:1000FE000313181608008316031385018601870162
:10010E00880107309F00831203138601870188013F
:10011E0089010800C030831603139F000930831233
:10012E0003139F001A30F100F830F000F00B9D28F9
:10013E00F10B9D2800000800F501AF2875080A1282
:10014E008A1161210A128A110130F4007408F50730
:10015E008312031342087502031CB628B728A5287C
:10016E000800F4000130F2007208831203139F0599
:10017E007408F20002300310F20DFF3E031DC22878
:10018E000310720DF30073089F040630F300303035
:10019E00F200F20BD028F30BD028000083120313C9
:1001AE001F151F19DB28DC28D8281E08F10083161E
:1001BE0003131E08F0000800780879040319E828D4
:1001CE00E9281829FD01FD0AF72801300310F80D62
:1001DE00F90DFF3E031DED280130FC007C08FD07E4
:1001EE00F91FFA28FB28EC2879087B02031D012948
:1001FE0078087A02031C042905290B297808FA02CB
:10020E007908031CFB03FB0201300310F90CF80CF8
:10021E00FF3E031D0C290130FD02031D172918296D
:10022E00FB287B08F9007A08F8000800F501F601B2
:10023E00700871040319242925295C29F701F70A8E
:10024E00332901300310F00DF10DFF3E031D292956
:10025E000130F4007408F707F11F362937292829D1
:10026E0001300310F50DF60DFF3E031D3829710800
:10027E007302031D442970087202031C4729482982
:10028E004F297008F2027108031CF303F302751470
:10029E0001300310F10CF00CFF3E031D502901300C
:1002AE00F702031D5B295C2937297608F1007508D2
:1002BE00F0000800F300AB290130F000730A692941
:1002CE000310F00DFF3E031D6729700885000230F4
:1002DE00F2008630F1009930F000F00B7429F10B2A
:1002EE007429F20B7429C6290130F000730A812992
:1002FE000310F00DFF3E031D7F29700886006E2946
:10030E000130F000730A8D290310F00DFF3E031D1E
:10031E008B29700887006E290130F000730A992925
:10032E000310F00DFF3E031D9729700888006E29FB
:10033E000130F000730AA5290310F00DFF3E031DD6
:10034E00A329700889006E29831203133F08F00059
:10035E00F1017108003A0319B529C6297008003A4F
:10036E0003196329013A03197B29033A03198729D3
:10037E00013A03199329073A03199F29C629080040
:10038E000030831203132005A80000302105A900B8
:10039E0080302205AA007F302305AB002B082A04EB
:1003AE0029042804031DDC29DD29E5290030A300DA
:1003BE000030A2000030A1000030A0000030240563
:1003CE00A80000302505A90080302605AA007F3040
:1003DE002705AB002B082A0429042804031DF8293D
:1003EE00F929012A0030A7000030A6000030A50030
:1003FE000030A400A31F042A052A292A0030A800D1
:10040E000030A9000030AA008030AB002008A802FE
:10041E002108031C210F142A152AA9022208031CE5
:10042E00220F1A2A1B2AAA022308031C230F202A92
:10043E00212AAB022B08A3002A08A2002908A1003A
:10044E002808A000A71F2C2A2D2A512A0030A80008
:10045E000030A9000030AA008030AB002408A802AA
:10046E002508031C250F3C2A3D2AA9022608031C39
:10047E00260F422A432AAA022708031C270F482ABE
:10048E00492AAB022B08A7002A08A6002908A500B6
:10049E002808A4008030A3068030A7062708230270
:1004AE00031D632A26082202031D632A2508210242
:1004BE00031D632A240820020318662A672A692A64
:1004CE0003106A2A03140800F80078080319702A2A
:1004DE00712A852AF31F742A752A852A7009FA0053
:1004EE007109FB007209FC007309FD00FA0A031979
:1004FE00FB0A0319FC0A0319FD0A8D2A7308FD0075
:10050E007208FC007108FB007008FA007308720490
:10051E0071047004031D942A952A9E2A0030F3005C
:10052E000030F2000030F1000030F000242B963045
:10053E00F4007408F900B02A0130F4007408F907C9
:10054E0001300310FD0CFC0CFB0CFA0CFF3E031DDE
:10055E00A82AFE307D05031DB52AB62AA32AD22A63
:10056E000130F4007408F9070130FA07003003185F
:10057E000130FB07003003180130FC070030031870
:10058E000130FD0701300310FD0CFC0CFB0CFA0CC6
:10059E00FF3E031DCA2AFF307D05031DD72AD82A28
:1005AE00B72AE42A0130F9020130F4000310FA0DE3
:1005BE00FB0DFC0DFD0DF40BDD2AFC1BE72AE82AD2
:1005CE00EE2A023079020318ED2AEE2AD92A79187A
:1005DE00F12AF22AFA2AFF30FA05FF30FB057F30A6
:1005EE00FC05FF30FD050310F90C7908F400F50148
:1005FE00F601F70118300310F40DF50DF60DF70D99
:10060E00FF3E031D022B7408FA047508FB047608DE
:10061E00FC047708FD0478080319162B172B1C2BE6
:10062E00F31F1A2B1B2B1C2BFD177D08F3007C08C8
:10063E00F2007B08F1007A08F00008008312031321
:10064E00AA002030A2002208A600D32B25302B06AC
:10065E000319322B332B3A2B2B080A128A115120F5
:10066E000A128A11D32BA501412BC030A2002208F9
:10067E00A5045B2B0130AA07FF302A0784000A125B
:10068E008A1103200A128A11AB00A200A3012308CB
:10069E00003A0319532BD32B2208003A0319E72BE8
:1006AE00753A03193C2BD32B2608840083130008BC
:1006BE00A700840A0008A8000230A2002208A6079C
:1006CE00AB01AB0A2B08A2002207013E84000A12DE
:1006DE008A1103200A128A11A3000A128A1103201A
:1006EE000A128A11A40024082802031D802B230855
:1006FE0027020318832B842B852B8F2B0130A2000E
:10070E002208AB0705302B06031D8E2B8F2B692B72
:10071E002B08A2002208A900C82B0A30F8000030CE
:10072E00F9002908A2002207013E84000A128A114C
:10073E0003200A128A11F0000A128A1103200A12EB
:10074E008A11F1002808F3002708F2000A128A1114
:10075E001D210A128A117108FB007008FA000A1294
:10076E008A11E3200A128A117808303E831203138D
:10077E00A3002308AB002B080A128A1151200A127B
:10078E008A11FF3083120313A2002208A907290A37
:10079E00031DD22BD32B942B013083120313AA07E4
:1007AE00FF302A0784000A128A1103200A128A11C6
:1007BE00A2002208AB002B08031DE62BE72B2D2BE6
:1007CE0008000A128A1173200A128A110A128A115B
:1007DE0091200A128A1183160313860116300A120B
:1007EE008A1125230A128A11831203132F08F0008F
:1007FE003008F100F201F30100300A128A116B2267
:10080E000A128A11730883120313A3007208A2003E
:10081E007108A1007008A0004430A7009630A60011
:10082E000030A5000030A4000A128A11C7210A1256
:10083E008A11031C232C242C252C122D01300A1274
:10084E008A11B8200A128A11710883120313B2009A
:10085E007008B1003208A1003108A0000B300A1256
:10086E008A1125230A128A110030831203133202D1
:10087E007D30031931020318452C462C482C80304C
:10088E008600003032027D3003193102031C502CD9
:10089E00512C5C2C00303202FA300319310203184D
:1008AE00592C5A2C5C2CC030860000303202FA30A3
:1008BE0003193102031C642C652C702C013032029A
:1008CE0077300319310203186D2C6E2C702CE0302A
:1008DE00860001303202773003193102031C782C66
:1008EE00792C842C01303202F430031931020318B2
:1008FE00812C822C842CF030860001303202F430B0
:10090E0003193102031C8C2C8D2C982C02303202D0
:10091E007130031931020318952C962C982CF8304F
:10092E00860002303202713003193102031CA02CF2
:10093E00A12CAC2C02303202EE3003193102031816
:10094E00A92CAA2CAC2CFC30860002303202EE30E0
:10095E0003193102031CB42CB52CC02C0330320207
:10096E006B30031931020318BD2CBE2CC02CFE3087
:10097E008600033032026B3003193102031CC82C7F
:10098E00C92CD42C04303202013003193102031861
:10099E00D12CD22CD42CFF308600023083120313BC
:1009AE00AE008630AD009830AC00AC0BDC2CAD0B3D
:1009BE00DC2CAE0BDC2C0000013083120313AF07CE
:1009CE000318B00A0030B0072F08F0003008F1000D
:1009DE00F201F30100300A128A116B220A128A11F7
:1009EE00730883120313A3007208A2007108A100FA
:1009FE007008A0004430A7009630A6000030A50075
:100A0E000030A4000A128A11C7210A128A11031C8F
:100A1E00112D122D252C08000A128A1182200A127D
:100A2E008A110A128A114C200A128A118312031398
:100A3E000508B3003308C100BF012B2D3C03031D75
:100A4E00292D2A2D2B2D2F2D091C2E2D2F2D252D09
:100A5E00BC01BC0A782F3D08031D362D372D592DAC
:100A6E000A128A1182200A128A110A128A114C2045
:100A7E000A128A110A128A11A3200A128A118312EB
:100A8E000313891C4B2D4C2D4E2DBF01912F091C8C
:100A9E00512D522D462DBF01BF0A0930B300330828
:100AAE00C200912F0A128A1165200A128A1183122E
:100ABE000313BE01BE0AC001C00AA32D05083E05E0
:100ACE0003196A2D6B2D9A2D091504308312031309
:100ADE00B5000C30B4003330B300B30B742DB40B2F
:100AEE00742DB50B742D83120313091182308312EA
:100AFE000313B400DD30B300B30B832DB40B832D81
:100B0E00013083120313B300400A8F2D0310B30D6F
:100B1E00FF3E031D8D2D3308B4003408BE00013096
:100B2E00B3003308C00707304006031D9F2DA02DCC
:100B3E00652DBF01BF0A912F4208031DA72DA82DB9
:100B4E00652D912F3D08031DAD2DAE2DC32D0A121F
:100B5E008A11A3200A128A1183120313891CB82D3D
:100B6E00B92DBA2DA02D091CBD2DBE2DB32D0230D1
:100B7E00B3003308BF00912FC001C00A0930B30083
:100B8E003308C200BE01BE0AB601102E06083E058D
:100B9E000319D22DD32D022E0915043083120313FF
:100BAE00B5000C30B4003330B300B30BDC2DB40BF6
:100BBE00DC2DB50BDC2D8312031309118230831249
:100BCE000313B400DD30B300B30BEB2DB40BEB2DE0
:100BDE00013083120313B300400AF72D0310B30D37
:100BEE00FF3E031DF52D3308B4003408BE0001305E
:100BFE00B3003308C00709304006031D072E082E28
:100C0E00CD2D0230B3003308BF004008B3003308C7
:100C1E00B60042083602031C152E162ECD2D912F2E
:100C2E003D08031D1B2E1C2E312E0A128A11A320E5
:100C3E000A128A1183120313891C262E272E282EA0
:100C4E00BE2D091C2B2E2C2E212E0330B300330863
:100C5E00BF00912FC001C00A0930B3003308C20093
:100C6E00BE01BE0AB7017E2E07083E050319402EAF
:100C7E00412E702E0915043083120313B5000C306B
:100C8E00B4003330B300B30B4A2EB40B4A2EB50B5F
:100C9E004A2E831203130911823083120313B400F8
:100CAE00DD30B300B30B592EB40B592E0130831225
:100CBE000313B300400A652E0310B30DFF3E031D50
:100CCE00632E3308B4003408BE000130B30033087D
:100CDE00C00709304006031D752E762E3B2E0330BD
:100CEE00B3003308BF004008B3003308B700420812
:100CFE003702031C832E842E3B2E912F3D08031D9D
:100D0E00892E8A2EA82E0A128A11A3200A128A115F
:100D1E0083120313891C942E952E962E2C2E091CAD
:100D2E00992E9A2E8F2E0430B3003308BF00043054
:100D3E00B3003308C2000A128A1148200A128A111F
:100D4E00912FC001C00A0930B3003308C200BE01A2
:100D5E00BE0AB801F52E08083E050319B72EB82EA7
:100D6E00E72E0915043083120313B5000C30B400BE
:100D7E003330B300B30BC12EB40BC12EB50BC12E45
:100D8E00831203130911823083120313B400DD3072
:100D9E00B300B30BD02EB40BD02E0130831203133D
:100DAE00B300400ADC2E0310B30DFF3E031DDA2EF6
:100DBE003308B4003408BE000130B3003308C00756
:100DCE0009304006031DEC2EED2EB22E0430B3007A
:100DDE003308BF004008B3003308B8004208380299
:100DEE00031CFA2EFB2EB22E912F3D08031D002F51
:100DFE00012F222F0A128A11A3200A128A110A1217
:100E0E008A114C200A128A1183120313891C102F87
:100E1E00112F162F0430B3003308BF00A22E091C69
:100E2E00192F1A2F0B2FBF01BD01BD0A0730B300BA
:100E3E003308C200912FC001C00A0330B30033083B
:100E4E00C200BE01BE0AB901712F09083E05031981
:100E5E00312F322F612F0915043083120313B50081
:100E6E000C30B4003330B300B30B3B2FB40B3B2F1D
:100E7E00B50B3B2F83120313091182308312031318
:100E8E00B400DD30B300B30B4A2FB40B4A2F013040
:100E9E0083120313B300400A562F0310B30DFF3E07
:100EAE00031D542F3308B4003408BE000130B300C4
:100EBE003308C00704304006031D662F672F2C2F02
:100ECE00BF010730B3003308C2000230B30033084D
:100EDE00BD00912F42083902031C762F772F2C2F3D
:100EEE00912F3F08B300B4013408003A0319802F44
:100EFE00912F3308003A0319322D013A0319A92D07
:100F0E00033A0319172E013A0319852E073A0319CE
:100F1E00FC2E912F0230831203133D06031D982FD2
:100F2E00992FA42F0A128A11E8230A128A1103306C
:100F3E0083120313B3003308BD0003303D06031DB7
:100F4E00A92FAA2F2B2D0A128A1182200A128A117A
:100F5E000A128A1148200A128A11033083120313CF
:100F6E003A02031CBB2FBC2FBD2FEA2FFF30890086
:100F7E000B3083120313B5002630B4005D30B3007E
:100F8E00B30BC72FB40BC72FB50BC72F8312031389
:100F9E0089010B3083120313B5002630B4005D3087
:100FAE00B300B30BD82FB40BD82FB50BD82F0130FD
:100FBE0083120313B3003308BA0703303A02031C3B
:100FCE00E92FEA2FBD2FBD01BC012B2D0A128A116C
:100FDE0000280A128A1147200A128A11C200BB0188
:100FEE00BC01BD01BE01BF01C00183010A128A11FD
:020FFE00132DB1
:08400000FF3FFF3FFF3FFF3FC0
:02400E007A3DF9
:00000001FF
