:100000000A128A11EF2F00308A000408840A82073E
:100010000034013400340A34003464340034E834E9
:1000200003341034273441344E34373420343D34D3
:100030002034253475340D340A34003469346E3478
:0A0040006934633469346F3400340E
:100AF2000734F10071080A128A1182250A128A113A
:100B02000800F00083160313981C882D892D832D6D
:100B12007008831203139900080083160313181533
:100B2200193099008312031398178316031398162A
:100B32008312031318160800C030831603139F0094
:100B42004130831203139F000D30F100FB30F0009F
:100B5200F00BA92DF10BA92DAE2D0800F4000130E8
:100B6200F2007208831203139F057408F200023028
:100B72000310F20DFF3E031DB92D0310720DF30099
:100B820073089F040330F3009730F200F20BC72D75
:100B9200F30BC72DCC2D831203131F151F19D22D52
:100BA200D32DCF2D1E08F100831603131E08F0006B
:100BB2000800780879040319DF2DE02D0F2EFD01BE
:100BC200FD0AEE2D01300310F80DF90DFF3E031D55
:100BD200E42D0130FC007C08FD07F91FF12DF22DF8
:100BE200E32D79087B02031DF82D78087A02031C95
:100BF200FB2DFC2D022E7808FA027908031CFB0358
:100C0200FB0201300310F90CF80CFF3E031D032E0A
:100C12000130FD02031D0E2E0F2EF22D7B08F9006E
:100C22007A08F8000800F501F6017008710403194A
:100C32001B2E1C2E532EF701F70A2A2E0130031009
:100C4200F00DF10DFF3E031D202E0130F40074085B
:100C5200F707F11F2D2E2E2E1F2E01300310F50D3A
:100C6200F60DFF3E031D2F2E71087302031D3B2E4E
:100C720070087202031C3E2E3F2E462E7008F202AE
:100C82007108031CF303F302751401300310F10C15
:100C9200F00CFF3E031D472E0130F702031D522EBA
:100CA200532E2E2E7608F1007508F00008008312EC
:100CB2000313AA002030A2002208A600062F253026
:100CC2002B060319652E662E6D2E2B080A128A1129
:100CD2007A250A128A11062FA501742EC030A200AD
:100CE2002208A5048E2E0130AA07FF302A078400AD
:100CF2000A128A1103200A128A11AB00A200A30170
:100D02002308003A0319862E062F2208003A0319F7
:100D12001A2F753A03196F2E062F260884008313A3
:100D22000008A700840A0008A8000230A2002208D6
:100D3200A607AB01AB0A2B08A2002207013E8400E2
:100D42000A128A1103200A128A11A3000A128A11B6
:100D520003200A128A11A40024082802031DB32EBC
:100D6200230827020318B62EB72EB82EC22E013042
:100D7200A2002208AB0705302B06031DC12EC22E8E
:100D82009C2E2B08A2002208A900FB2E0A30F80094
:100D92000030F9002908A2002207013E84000A124D
:100DA2008A1103200A128A11F0000A128A11032002
:100DB2000A128A11F1002808F3002708F2000A1229
:100DC2008A1114260A128A117108FB007008FA00AF
:100DD2000A128A11DA250A128A117808303E831221
:100DE2000313A3002308AB002B080A128A117A25E9
:100DF2000A128A11FF3083120313A2002208A907E4
:100E0200290A031D052F062FC72E01308312031353
:100E1200AA07FF302A0784000A128A1103200A1245
:100E22008A11A2002208AB002B08031D192F1A2FCA
:100E3200602E08000A128A118E250A128A110A12DD
:100E42008A119D250A128A11831603138601163010
:100E52000A128A1158260A128A1100300A128A11BD
:100E6200AF250A128A11710883120313B0007008A9
:100E7200AF003008A1002F08A0000B300A128A111F
:100E820058260A128A1100308312031330027D3071
:100E920003192F0203184E2F4F2F512F8030860037
:100EA200003030027D3003192F02031C592F5A2FB4
:100EB200652F00303002FA3003192F020318622F17
:100EC200632F652FC030860000303002FA300319DC
:100ED2002F02031C6D2F6E2F792F013030027730D5
:100EE20003192F020318762F772F792FE03086000F
:100EF20001303002773003192F02031C812F822F19
:100F02008D2F01303002F43003192F0203188A2F7B
:100F12008B2F8D2FF030860001303002F430031910
:100F22002F02031C952F962FA12F02303002713011
:100F320003192F0203189E2F9F2FA12FF83086002E
:100F420002303002713003192F02031CA92FAA2F7D
:100F5200B52F02303002EE3003192F020318B22FE0
:100F6200B32FB52FFC30860002303002EE30031969
:100F72002F02031CBD2FBE2FC92F033030026B304E
:100F820003192F020318C62FC72FC92FFE30860060
:100F9200033030026B3003192F02031CD12FD22FE2
:100FA200DD2F04303002013003192F020318DA2F2B
:100FB200DB2FDD2FFF308600033083120313AE00D8
:100FC2008A30AD005530AC00AC0BE52FAD0BE52FF0
:100FD200AE0BE52F2E2F0A128A1100280A128A114F
:100FE20079250A128A11B800B101B201B301B40124
:0E0FF200B501B601B70183010A128A111B2F47
:08400000FF3FFF3FFF3FFF3FC0
:02400E00713F00
:00000001FF
